:100000000C9468000C9490000C9490000C94900058
:100010000C9490000C9490000C9490000C94900020
:100020000C9490000C9490000C9490000C94900010
:100030000C9490000C9490000C9490000C94900000
:100040000C94DB090C9490000C9490000C9490009C
:100050000C9490000C9490000C9490000C949000E0
:100060000C9490000C949000000000090003020022
:10007000000405080000000000000000000000016E
:10008000020408102040800102040810200102042C
:100090000810204080400404040404040404020204
:1000A000020202020303030303030202030000002F
:1000B0000023002600290000000000250028002B56
:1000C0000000000000240027002A00000705180592
:1000D00011241FBECFEFD8E0DEBFCDBF13E0A0E0FC
:1000E000B1E0ECEEF9E102C005900D92A23CB1073F
:1000F000D9F723E0A2ECB3E001C01D92A93FB207FB
:10010000E1F710E0C7E6D0E004C02197FE010E94AD
:10011000B70BC636D107C9F70E947F0B0C94E90CC8
:100120000C940000282FE6E0F1E090E080E03081C0
:10013000321739F00196339689379105C1F78FEF61
:100140009FEF08956AEF83ED93E00E943608892BB4
:10015000C9F70895CF93DF931F92CDB7DEB78D5EB9
:1001600091098331910508F5FC01E754FF4F0C9488
:10017000B70BFF00FD00D500E400D500F000E4005F
:10018000E000DB00DD00D500D500D500D500D500AE
:10019000D500D500DD00CC000E94A2006AEA83ED04
:1001A00093E00E943608892BC9F781E090E00F9018
:1001B000DF91CF9108951092CE030E94A200F5CF57
:1001C00081E08093CE03F9CF0E94A200BE016F5F51
:1001D0007F4F83ED93E00E94F708892B31F7EDCF35
:1001E0000E94A2006BEA83ED93E00E94360863E868
:1001F00083ED93E00E943608D8CF6EEEF9CF0E94CF
:10020000A200BE016F5F7F4F83ED93E00E94F7086D
:10021000892B99F60E94A200D0CFEF92FF920F9304
:100220001F93CF93DF938C01EC01CC0FDD1FFE01F8
:10023000E00FF11FEA5FFE4F818180FF05C069E595
:1002400083ED93E00E943608FE01E00FF11FEA5FA4
:10025000FE4F818181FF05C060EE83ED93E00E9437
:100260003608CE01800F911F9C012A5F3E4F790115
:10027000F901628183ED93E00E94C6096AE070E0B3
:1002800080E090E00E94560AF701818181FF05C05D
:1002900060EE83ED93E00E94360860EF83ED93E01B
:1002A0000E943608C00FD11FCA5FDE4F6A8183EDFE
:1002B00093E00E9436086AE070E080E090E00E94DF
:1002C000560A898180FF0AC060EF83ED93E00E94A7
:1002D000360869E583ED93E00E9436086AE070E035
:1002E00080E090E0DF91CF911F910F91FF90EF9010
:1002F0000C94560A23E033E043E050E070E060E005
:1003000087ED93E00E94A60787ED93E00C94AE057D
:1003100020E030E0A90170E060E087ED93E00E940A
:10032000A60787ED93E00C94AE0561E081E10E94A1
:10033000EB0A61E080E10E94EB0A61E08FE00E943D
:10034000EB0A61E08EE00E94EB0A61E08EE00E9421
:10035000270B60E08FE00E94270B60E080E10E94A5
:10036000270B60E081E10E94270B14B88FEF85B95D
:100370001AB88BB987ED93E00E942E0583ED93E0C8
:100380000C94B50960E081E10E94270B61E080E1F7
:100390000E94270B61E08FE00E94270B61E08EE056
:1003A0000E94270B89B18F3F09F444C089B18F3E69
:1003B00009F457C050F48F3B09F457C08F3D09F43E
:1003C00052C08F3749F488E031C08B3F09F445C0F3
:1003D00030F5873F09F443C061E081E10E94270BBB
:1003E00060E080E10E94270B61E08FE00E94270B14
:1003F00061E08EE00E94270B89B18F3F09F469C04C
:1004000089B18F3E09F47AC0A0F58F3B09F47AC018
:100410008F3D09F475C08F3789F584E107C08D3FA2
:1004200021F08E3FC9F681E001C082E091E0909317
:10043000C403089589B18F3D79F283B18B3D59F0A2
:1004400020F4873D49F68CE0F1CF8D3D81F08E3D63
:1004500019F689E0EBCF8BE0E9CF83E0E7CF84E0CA
:10046000E5CF85E0E3CF86E0E1CF87E0DFCF8AE02C
:10047000DDCF8B3F61F128F5873FF1F161E081E14C
:100480000E94270B61E080E10E94270B60E08FE073
:100490000E94270B61E08EE00E94270B89B18F3FFD
:1004A00009F466C089B18F3E09F477C088F58F3BA7
:1004B00009F477C08F3D09F472C08F3771F580E27F
:1004C000B5CF8D3F09F18E3FC9F68DE0AFCF8FE0FC
:1004D000ADCF89B18F3D91F283B18B3D59F020F4BE
:1004E000873D61F688E1A2CF8D3D81F08E3D31F6EA
:1004F00085E19CCF87E19ACF80E198CF81E196CFCB
:1005000082E194CF83E192CF8EE090CF86E18ECFCF
:100510008B3F61F128F5873FF1F161E081E10E94B5
:10052000270B61E080E10E94270B61E08FE00E94D1
:10053000270B60E08EE00E94270B89B18F3F09F402
:1005400044C089B18F3E09F459C088F58F3B09F446
:1005500059C08F3D09F454C08F3771F58CE266CFD6
:100560008D3F09F18E3FC9F689E160CF8BE15ECF07
:1005700089B18F3D91F283B18B3D59F020F4873DD5
:1005800061F684E253CF8D3D81F08E3D31F681E2FC
:100590004DCF83E24BCF8CE149CF8DE147CF8EE148
:1005A00045CF8FE143CF8AE141CF82E23FCF8B3FFE
:1005B00051F018F4873F01F108958D3F29F18E3FE6
:1005C000D9F785E233CF87E231CF89B18F3D81F012
:1005D00083B18B3D59F020F4873D71F780E326CF3E
:1005E0008D3DA1F08E3D41F78DE220CF8FE21ECFF1
:1005F0001092C4038FEF089588E218CF89E216CFD6
:100600008AE214CF8BE212CF86E210CF8EE20ECFB9
:100610000F931F93CF93DF931F92CDB7DEB783ED78
:1006200093E00E94E208892B31F48091CF039091EE
:10063000D003892B31F5BE016F5F7F4F83ED93E0CF
:100640000E94F708892BB9F7898190E00E94AA00DF
:100650009093D0038093CF03892B99F02EE130E063
:10066000A90170E060E087ED93E00E94A60787EDA6
:1006700093E00E94AE0564EF71E080E090E00E949C
:10068000560A1C9925C01092C9031092C8031092F3
:10069000CB031092CA031092C7031092C603809135
:1006A000CC039091CD03892B09F07AC06CE271E004
:1006B00080E090E00E94560A1C996FC082E090E0B2
:1006C0009093CD038093CC039093C3038093C20394
:1006D0001F9927C01092CD031092CC031092CB0328
:1006E0001092CA031092C7031092C6038091C803E8
:1006F0009091C903892B09F07EC06CE271E080E023
:1007000090E00E94560A1F996DC082E090E090939D
:10071000C9038093C80384E090E09093C30380935F
:10072000C2031E9927C01092C9031092C8031092E9
:10073000CD031092CC031092C7031092C603809190
:10074000CA039091CB03892B09F082C06CE271E05F
:1007500080E090E00E94560A1E9971C082E090E00D
:100760009093CB038093CA0386E090E09093C303F9
:100770008093C203E091C203F091C303E730F10517
:1007800008F0A3C0EA53FC4F0C94B70B5C044C0474
:10079000D304D804E804ED04FD0481E090E090CF98
:1007A0006CE271E080E090E00E94560A1C9906C05D
:1007B0008091CC039091CD03029749F41092C3032A
:1007C0001092C2031092CD031092CC0381CF82E02D
:1007D00090E09093C3038093C2039093CD038093E2
:1007E000CC0376CF81E090E09093C9038093C80357
:1007F00083E090E092CF6CE271E080E090E00E94B4
:10080000560A1F9906C08091C8039091C9030297A8
:1008100049F41092C3031092C2031092C9031092BC
:10082000C8037FCF84E090E09093C3038093C2031A
:1008300082E090E09093C9038093C80372CF81E077
:1008400090E09093CB038093CA0385E090E08ECF35
:100850006CE271E080E090E00E94560A1E9906C0AA
:100860008091CA039091CB03029749F41092C3037D
:100870001092C2031092CB031092CA037BCF86E082
:1008800090E09093C3038093C20382E090E0909342
:10089000CB038093CA036ECF8091C6039091C703A8
:1008A00066E070E00E94A30BCB0162E070E00E9462
:1008B000A30B019709F077C020E030E0A90170E0B8
:1008C00060E087ED93E00E94A60787ED93E00E9429
:1008D000AE058091C403811104C00E94C2018093BF
:1008E000C5038091C403882309F44EC08091C503D9
:1008F0008150990B27E0289FF001299FF00D1124CA
:10090000EF58FD4F8091C2039091C303E80FF91F88
:1009100080810E9492008C0197FD19C00E947A018B
:10092000C8010E940D018091D1039091D2038017DC
:10093000910709F067C063E270E080E090E00E94F8
:10094000560A0E9488011093D2030093D10380912C
:10095000C2039091C3039C012D7F2130310511F01A
:10096000059781F41092C3031092C2031092CD0335
:100970001092CC031092C9031092C8031092CB03BB
:100980001092CA031092C4038091C6039091C703CA
:1009900001969093C7038093C6030F90DF91CF9188
:1009A0001F910F91089520E030E045E050E087CF9F
:1009B0008091C6039091C70366E070E00E94A30B8C
:1009C000CB0162E070E00E94A30B019709F474CFA1
:1009D00020E035E040E050E072CF8091C603909176
:1009E000C70366E070E00E94A30BCB0162E070E0F9
:1009F0000E94A30B019709F45FCF25E030E040E0AF
:100A000050E05DCF68EC70E080E090E098CF22E5A8
:100A100030E04DE061E070E087ED93E00E948607F2
:100A200043E150E062E170E083ED93E00C9426082E
:100A300087ED93E00C941C05CF93DF93EC01888540
:100A400099850E94590C8E8187FD05C060E0DF9179
:100A5000CF910C94EB0ADF91CF910895CF93DF9360
:100A6000EC018E8187FD07C061E00E94EB0A60E027
:100A70008E810E94270B81E08983DF91CF910895B9
:100A8000EF92FF920F931F93CF93DF93EC017B01C3
:100A9000888599850E94590C9D858A85981701F152
:100AA00084E090E08E9D80018F9D100D9E9D100D25
:100AB00011241D830C83C8010E94BD0B9987888770
:100AC000009789F0A80170E060E00E94E20CFB82D0
:100AD000EA82DF91CF911F910F91FF90EF900895DF
:100AE00083E090E0DFCF1D821C821B821A82F1CF4F
:100AF000FC01B585A2859B0186E0369527958A95F0
:100B0000E1F723702587CB0134E0969587953A95D8
:100B1000E1F783708287AB015695479556954795C7
:100B200043704387962F9370948791E06F3F7105D0
:100B300011F008F090E0908340855185452B69F0D5
:100B400031E0BA1330E091E0281390E0391729F032
:100B500062817381CF010C9440050895CF92DF929A
:100B6000EF92FF920F931F93CF93DF93CDB7DEB732
:100B700029970FB6F894DEBF0FBECDBF8C01DC0104
:100B800018968D919C91892B09F497C00E94310A87
:100B9000F801C684D784E088F1886C197D098E0934
:100BA0009F096C3271408105910580F3F894D8015A
:100BB00014968D919C9115979A83898318960D9020
:100BC000BC91A02D7D01EFEFEE1AFE0A8C91898772
:100BD000D8018C9152960D90BC91A02D882309F4D8
:100BE00034C11D82AB32B10509F076C09BB1F8016A
:100BF0008489982B98879BB1809589238F838F81D7
:100C00008E83898587FF02C088858E8358856F8192
:100C100049853E812D8189819A81D7015BB9262F33
:100C20003BB900C046FD252F6BB900C05BB9362F1C
:100C30002BB900C045FD352F6BB900C05BB9262F1D
:100C40003BB900C044FD252F6BB900C05BB9362FFE
:100C50002BB900C043FD352F6BB900C05BB9262FFF
:100C60003BB900C042FD252F6BB900C05BB9362FE0
:100C70002BB900C041FD352F6BB900C05BB9262FE1
:100C80003BB900C040FD252F6BB901975BB9362FEA
:100C90002BB94D9147FD352F6BB901F649873E833E
:100CA0002D839A83898378940E94310AD8011E96F5
:100CB0006D937D938D939C93519729960FB6F894DD
:100CC000DEBF0FBECDBFDF91CF911F910F91FF907F
:100CD000EF90DF90CF900895A532B10509F059C08B
:100CE00095B1F8018489982B988795B180958923CF
:100CF0008F838F818E83898587FF02C088858E834D
:100D000058856F8149853E812D8189819A81D701DE
:100D100055B9262F35B900C046FD252F65B900C04D
:100D200055B9362F25B900C045FD352F65B900C02E
:100D300055B9262F35B900C044FD252F65B900C02F
:100D400055B9362F25B900C043FD352F65B900C010
:100D500055B9262F35B900C042FD252F65B900C011
:100D600055B9362F25B900C041FD352F65B900C0F2
:100D700055B9262F35B900C040FD252F65B901971B
:100D800055B9362F25B94D9147FD352F65B901F677
:100D900085CF989709F087CF98B1F8018489982B6F
:100DA000988798B1809589238F838F818E838985D9
:100DB00087FF02C088858E8358856F8149853E8173
:100DC0002D8189819A81D70158B9262F38B900C061
:100DD00046FD252F68B900C058B9362F28B900C084
:100DE00045FD352F68B900C058B9262F38B900C065
:100DF00044FD252F68B900C058B9362F28B900C066
:100E000043FD352F68B900C058B9262F38B900C046
:100E100042FD252F68B900C058B9362F28B900C047
:100E200041FD352F68B900C058B9262F38B900C028
:100E300040FD252F68B9019758B9362F28B94D9133
:100E400047FD352F68B901F629CF9C91F8018489B7
:100E5000982B98879C91809589238F838F818C8391
:100E600088E08B8358856F8149853B812C818981FE
:100E70009A81F7015C9347FD252F2C93262F3A95F5
:100E800031F0441F6C9300C000C000C0F3CF6C93DE
:100E9000000038E04191019769F7F801B38BA28B0C
:100EA00049873B832C83FDCE1F93CF93DF93EC01C7
:100EB000162F8981882331F08E8187FD03C060E081
:100EC0000E94EB0A1E838981882341F061E0812F13
:100ED0000E94EB0A60E0812F0E94270B812F90E097
:100EE000FC01EA56FF4FE491F0E0EE0FFF1FE954DA
:100EF000FF4F259134913B8B2A8BFC01E158FF4F2A
:100F0000E491EC8BDF91CF911F910895EF92FF92C6
:100F10001F93CF93DF93EC017B01142F19821F8263
:100F2000198618861E861F86188A198AB9010E949A
:100F30007805B701CE010E944005612FCE01DF91F7
:100F4000CF911F91FF90EF900C9454078F929F9236
:100F5000AF92BF92CF92DF92EF92FF921F93CF9307
:100F6000DF93FC018281938168177907A8F54A0114
:100F7000AA24BB24C82DC32ED42EE52EFF241C2D5D
:100F8000D22F8781882361F0889E40011124C92DCA
:100F90008C9D600111241D2D829FD0011124DB2F17
:100FA000A585E084F1849285A91322C0CB01880F26
:100FB000991F680F791F6E0D7F1DA285A60FB72F91
:100FC000B11DCC93A385A60FB72FB11D1C938485AB
:100FD000680F711DFB01D083DF91CF911F91FF90AE
:100FE000EF90DF90CF90BF90AF909F908F9008953B
:100FF000660F771F660F771F6E0D7F1D252F332716
:1010000044275527882349F090E0829F7001839FF1
:10101000F00C929FF00C11242F2DA60FB72FB11DAD
:101020002C93CBCFCF93C82F60E00E94270B61E0B9
:101030008C2FCF910C94EB0ACF93C82F60E00E94C5
:10104000EB0A61E08C2FCF910C94270BCF93DF93A9
:10105000EC01CB01798368835B834A830E941C087F
:101060008A819B81DF91CF910C941C08CF92DF92F3
:10107000EF92FF920F931F93CF93DF93EC01162F04
:1010800088EE93E00E948F0A88810E94550B892B7D
:1010900009F492C08A810E94550B892B09F48FC0F4
:1010A0008A819B810E94120884E190E00E948F0A4D
:1010B000888199810E94120888E290E00E948F0A3C
:1010C000888199810E941C0884E190E00E948F0A27
:1010D00028E0F22E01E0C12ED12C8A819B81212FA4
:1010E0002170E22E10FF62C00E941C0884E190E093
:1010F0000E948F0A888199810E94120888E290E0FC
:101100000E948F0A888199810E941C0884E190E0E6
:101110000E948F0A8E2D8027D594C7941C2DFA9497
:10112000F11042C08A819B81E01609F442C00E94FE
:101130001C0884E190E00E948F0A888199810E94B6
:10114000120888E290E00E948F0A888199810E94AB
:101150001C0884E190E00E948F0A8A819B810E9492
:101160001C0884E190E00E948F0A888199810E9486
:10117000120888E290E00E948F0A888199810E947B
:101180001C0884E190E00E948F0A88EE93E00E94A0
:101190008F0A90E080E0DF91CF911F910F91FF9037
:1011A000EF90DF90CF900895082F95CF0E941208FE
:1011B0009DCF0E941208BDCF8FEF9FEFECCF8EEF37
:1011C0009FEFE9CFCF93DF93EC018A810E94550B0B
:1011D00021E0892B39F088810E94550B21E0892B71
:1011E00009F020E0822F90E0DF91CF9108956F9277
:1011F0007F928F929F92AF92BF92CF92DF92EF92A7
:10120000FF920F931F93CF93DF93EC014B010E944A
:10121000250A6B017C018A810E94550B8C01892B68
:1012200071F00E94250A6C197D098E099F096F31A2
:1012300071058105910578F30FEF1FEF86C0888156
:101240000E94550B019769F784E190E00E948F0A94
:10125000888199810E94120888E290E00E948F0A9A
:10126000888199810E941C0884E190E00E948F0A85
:1012700098E0C92ED12C77247394F12CE12CAA2468
:10128000A394B12C662463948A810E94550B019724
:1012900019F4EA28FB287624AA0CBB1C84E190E010
:1012A0000E948F0A888199810E94120888E290E04A
:1012B0000E948F0A888199810E941C0884E190E035
:1012C0000E948F0A81E0C81AD108F1F68A810E9433
:1012D000550B6C0184E190E00E948F0A888199810E
:1012E0000E94120888E290E00E948F0A888199810A
:1012F0000E941C0884E190E00E948F0A84E190E043
:101300000E948F0A8A819B810E941208888199819C
:101310000E94120888E290E00E948F0A88819981D9
:101320000E941C0884E190E00E948F0A8A819B81C0
:101330000E941C08F401E08281E0CA94CD2809F0E3
:1013400080E0871511F00EEF1FEFC801DF91CF91FC
:101350001F910F91FF90EF90DF90CF90BF90AF90D3
:101360009F908F907F906F900895CF93DF93EC01C3
:101370006AEACE010E943608892BD1F76AE070E054
:1013800080E090E0DF91CF910C94560A1F93CF93A9
:10139000DF93EC01162F0E94360860EFCE010E9409
:1013A0003608612FCE010E94360890E080E0DF9180
:1013B000CF911F9108951F920F920FB60F92112493
:1013C0002F933F938F939F93AF93BF938091F1039C
:1013D0009091F203A091F303B091F4033091F003E4
:1013E00026E0230F2D3768F129E8230F0396A11D6E
:1013F000B11D2093F0038093F1039093F203A09327
:10140000F303B093F4038091EC039091ED03A0916A
:10141000EE03B091EF030196A11DB11D8093EC0383
:101420009093ED03A093EE03B093EF03BF91AF91C0
:101430009F918F913F912F910F900FBE0F901F9012
:1014400018950296A11DB11DD4CF2FB7F8946091C5
:10145000F1037091F2038091F3039091F4032FBF95
:1014600008953FB7F8948091EC039091ED03A0911B
:10147000EE03B091EF0326B5A89B05C02F3F19F0EE
:101480000196A11DB11D3FBFBA2FA92F982F882704
:10149000BC01CD01620F711D811D911D43E0660FDE
:1014A000771F881F991F4A95D1F708958F929F92B1
:1014B000AF92BF92CF92DF92EF92FF926B017C01CD
:1014C0000E94310A4B015C01C114D104E104F10412
:1014D000E9F00E948E0B0E94310A681979098A0985
:1014E0009B09683E73408105910570F321E0C21AA3
:1014F000D108E108F10888EE880E83E0981EA11C4F
:10150000B11CC114D104E104F10429F7FF90EF905C
:10151000DF90CF90BF90AF909F908F900895000084
:1015200000008330910528F0880F991F05970197D7
:10153000F1F70895789484B5836084BD85B58360A0
:1015400085BDEEE6F0E0808181608083E1E8F0E037
:1015500082E08083808181608083E0E8F0E08081A8
:1015600081608083E1EBF0E0808184608083E0EB48
:10157000F0E080818160808386E880937A00109219
:10158000C1000895843081F028F48230E9F083307E
:10159000F9F00895883071F0893091F08530B9F410
:1015A000809180008F7D03C0809180008F77809331
:1015B000800008958091B0008F778093B0000895E7
:1015C0008091B0008F7DF9CF84B58F7784BD089569
:1015D00084B58F7DFBCFCF93DF9390E0FC01E15882
:1015E000FF4F24918A569F4FFC0184918823C9F0B4
:1015F00090E0880F991FFC01EF53FF4FA591B49124
:10160000FC01E954FF4FC591D49161110DC09FB702
:10161000F8948C91209582238C93888128232883A9
:101620009FBFDF91CF910895623051F49FB7F89436
:101630003C91822F809583238C93E8812E2BEFCFD2
:101640008FB7F894EC912E2B2C938FBFEACF1F937A
:10165000CF93DF93282F30E0F901E859FF4F8491B1
:10166000F901E158FF4FD491F901EA56FF4FC491B7
:10167000CC23A9F0162F81110E94C20AEC2FF0E0B2
:10168000EE0FFF1FE954FF4FA591B4918FB7F89467
:10169000EC91111108C0D095DE23DC938FBFDF9150
:1016A000CF911F910895DE2BF8CFCF93DF93282F92
:1016B00030E0F901E859FF4F8491F901E158FF4FFB
:1016C000D491F901EA56FF4FC491CC23A1F08111C6
:1016D0000E94C20AEC2FF0E0EE0FFF1FE355FF4F10
:1016E000A591B491EC91ED2381E090E009F480E0C4
:1016F000DF91CF91089580E090E0FACF08950E94A5
:101700009A0A0E947E0B0E949501C0E0D0E00E94E0
:1017100008032097E1F30E940000F9CF0895AA1B67
:10172000BB1B51E107C0AA1FBB1FA617B70710F0CC
:10173000A61BB70B881F991F5A95A9F780959095FE
:10174000BC01CD01089597FB072E16F4009407D035
:1017500077FD09D00E948F0B07FC05D03EF49095D1
:1017600081959F4F0895709561957F4F0895EE0F75
:10177000FF1F0590F491E02D09940F931F93CF93D1
:10178000DF938230910510F482E090E0E091F7035E
:10179000F091F80330E020E0B0E0A0E0309799F459
:1017A0002115310509F44AC0281B390B24303105B5
:1017B000D8F58A819B816115710589F1FB019383BD
:1017C0008283FE0111C0408151810281138148173B
:1017D0005907E0F04817590799F4109761F01296ED
:1017E0000C93129713961C933296CF01DF91CF91F1
:1017F0001F910F9108950093F7031093F803F4CF0E
:101800002115310551F04217530738F0A901DB01CA
:101810009A01BD01DF01F801C1CFEF01F9CF90932B
:10182000F8038093F703CDCFFE01E20FF31F8193FE
:1018300091932250310939832883D7CF2091F50322
:101840003091F603232B41F42091020130910301E2
:101850003093F6032093F5032091000130910101AC
:101860002115310541F42DB73EB740910401509147
:101870000501241B350BE091F503F091F603E21707
:10188000F307A0F42E1B3F0B2817390778F0AC01A3
:101890004E5F5F4F2417350748F04E0F5F1F509380
:1018A000F6034093F503819391939FCFF0E0E0E03E
:1018B0009CCFCF93DF930097E9F0FC01329713821E
:1018C0001282A091F703B091F803ED0130E020E01F
:1018D0001097A1F420813181820F931F2091F5038D
:1018E0003091F6032817390709F061C0F093F60329
:1018F000E093F503DF91CF910895EA01CE17DF075A
:10190000E8F54A815B819E0141155105B1F7E90176
:10191000FB83EA8349915991C40FD51FEC17FD074A
:1019200061F4808191810296840F951FE90199836A
:101930008883828193819B838A83F0E0E0E0129622
:101940008D919C9113970097B9F52D913C9111972A
:10195000CD010296820F931F2091F5033091F6037B
:101960002817390739F6309751F51092F80310927D
:10197000F703B093F603A093F503BCCFD383C283E0
:1019800040815181840F951FC817D90761F44E5FBC
:101990005F4F88819981480F591F518340838A8105
:1019A0009B81938382832115310509F0B0CFF09399
:1019B000F803E093F7039ECFFD01DC01C0CF138253
:1019C0001282D7CFDC0101C06D9341505040E0F747
:1019D000089510E0C7E6D0E004C0FE010E94B70BF6
:0C19E0002196C836D107C9F7F894FFCF54
:1019EC000000F903800008006609000D0D005A1B69
:1019FC00007620002921011622011E230126240134
:101A0C002525012E26013627013D28013E290146B8
:101A1C002A01522B014C2C00412D004E2E00492F37
:101A2C00004A30004531001632001E3300263400C7
:101A3C002535002E36003637003D38003E3900463D
:101A4C003A00523B004C3C01413D014E3E01493FA6
:101A5C00014A40005441011C42013243012144011E
:101A6C002345012446012B470134480133490143E6
:101A7C004A013B4B01424C014B4D013A4E01314F57
:101A8C00014450014D51011552012D53011B5401BC
:101A9C002C55013C56012A57011D58012259011A97
:101AAC005A01355B005B5C006A5D005D5E00555F52
:101ABC00015160015461001C62003263002164001A
:101ACC002365002466002B670034680033690043EB
:101ADC006A003B6B00426C004B6D003A6E00316F3C
:101AEC00004470004D71001572002D73001B7400C2
:101AFC002C75003C76002A77001D78002279001A9C
:101B0C007A00357B015B7C016A7D015D7E01557F2E
:101B1C00027181000582000683000484000C85009C
:101B2C000386000B87008388000A8900018A00095C
:101B3C008B027098026C99027DA10013A4027AA505
:101B4C000269B4026BB50275B60272B7027400007A
:101B5C00001B1B1B1B1B80803131312121818132E9
:101B6C003232222282823333332727838334343434
:101B7C002424848435353525258585363636262628
:101B8C0086863737372F2F87873838382828888824
:101B9C00393939292989893030303D3D8A8A087F85
:101BAC007F08088B8B09090909098C8C7151517BB1
:101BBC007B8D8D7757577D7D8E8E6545452B2B8F75
:101BCC008F725252232390907454545B5B91917991
:101BDC0059595D5D92927555557C7C939369494931
:101BEC007E7E94946F4F4F5E5E95957050502A2A6E
:101BFC00969600000000000000B4B4B4B4B49898F9
:101C0C00B5B5B5B5B599996141413C3C9A9A7353B8
:101C1C00533E3E9B9B64444440409C9C664646001D
:101C2C00009D9D6747472D2D9E9E6848485F5F9F8E
:101C3C009F6A4A4A0000A0A06B4B4B3F3FA1A16C8E
:101C4C004C4C0000A2A20D0D0D0D0DA3A3B6B6B603
:101C5C00B6B6A4A4B7B7B7B7B7A5A57A5A5A0000B9
:101C6C00A6A67858580000A7A76343430000A8A86D
:101C7C007656560000A9A96242420000AAAA6E4EEE
:101C8C004E0000ABAB6D4D4D0000ACAC2C2C2C3B86
:101C9C003BADAD2E2E2E3A3AAEAE2020202020AFFA
:021CAC00AF0087
:00000001FF
