:100000000C9468000C9490000C9490000C94900058
:100010000C9490000C9490000C9490000C94900020
:100020000C9490000C9490000C9490000C94900010
:100030000C9490000C9490000C9490000C94900000
:100040000C94FB0A0C9490000C9490000C9490007B
:100050000C9490000C9490000C9490000C949000E0
:100060000C9490000C949000000000090003020022
:10007000000405080000000000000000000000016E
:10008000020408102040800102040810200102042C
:100090000810204080400404040404040404020204
:1000A000020202020303030303030202030000002F
:1000B0000023002600290000000000250028002B56
:1000C0000000000000240027002A00002706380650
:1000D00011241FBECFEFD8E0DEBFCDBF13E0A0E0FC
:1000E000B1E0ECE2FCE102C005900D92A23CB10748
:1000F000D9F723E0A2ECB3E001C01D92AE3FB207F6
:10010000E1F710E0C7E6D0E004C02197FE010E94AD
:10011000D70CC636D107C9F70E949F0C0C94090E64
:100120000C940000EF92FF920F931F93CF93DF93F5
:100130008C01EC01CC0FDD1F6230710539F560EFE9
:1001400088ED93E00E945609C00FD11FCA5FDE4FB1
:100150006A8188ED93E00E945609898180FF0AC078
:1001600060EF88ED93E00E94560969E588ED93E021
:100170000E9456096AE070E080E090E0DF91CF9144
:100180001F910F91FF90EF900C94760BFE01E00F02
:10019000F11FEA5FFE4F818180FF05C069E588EDB0
:1001A00093E00E945609FE01E00FF11FEA5FFE4F47
:1001B000818181FF05C060EE88ED93E00E945609C1
:1001C0008091CA039091CB03019759F4C8018654DA
:1001D00091094A9708F056C064E188ED93E00E94C7
:1001E0005609CE01800F911F9C012A5F3E4F790175
:1001F000F901628188ED93E00E94E60AF7018181AE
:1002000081FF05C060EE88ED93E00E94560960EF23
:1002100088ED93E00E945609C00FD11FCA5FDE4FE0
:100220006A8188ED93E00E945609898180FF0AC0A7
:1002300060EF88ED93E00E94560969E588ED93E050
:100240000E9456098091CA039091CB03019799F4BB
:10025000065411090A31110550F460EF88ED93E05E
:100260000E94560964E188ED93E00E9456091092BD
:10027000CB031092CA03DF91CF911F910F91FF9092
:10028000EF9008951092CB031092CA03AACF282FA3
:10029000E6E0F1E090E080E03081321739F001963D
:1002A000339689379105C1F78FEF9FEF08956AEF75
:1002B00088ED93E00E945609892BC9F70895CF93E2
:1002C000DF931F92CDB7DEB78D5E91098331910523
:1002D00008F5FC01E259FE4F0C94D70CB401B201B1
:1002E0008A0199018A01A501990195019001920164
:1002F0008A018A018A018A018A018A018A0192019E
:1003000081010E9457016AEA88ED93E00E94560934
:10031000892BC9F781E090E00F90DF91CF9108958C
:100320001092C2030E945701F5CF81E08093C2036F
:10033000F9CF0E945701BE016F5F7F4F88ED93E0B8
:100340000E94170A892B31F7EDCF0E9457016BEA03
:1003500088ED93E00E94560963E888ED93E00E94DF
:100360005609D8CF6EEEF9CF0E945701BE016F5FDC
:100370007F4F88ED93E00E94170A892B99F60E941F
:100380005701D0CF0F931F93CF93DF936130710547
:1003900021F5EC018C01000F111FF801EC0FFD1F7E
:1003A000EA5FFE4F818180FF05C069E588ED93E03B
:1003B0000E945609C00FD11FCA5FDE4F6A8188EDC7
:1003C00093E00E9456096AE070E080E090E0DF91DF
:1003D000CF911F910F910C94760BDF91CF911F91CC
:1003E0000F910C94920023E033E043E050E070E082
:1003F00060E08CED93E00E94C6088CED93E00C94D5
:10040000CE0620E030E0A90170E060E08CED93E0E2
:100410000E94C6088CED93E00C94CE0661E081E169
:100420000E940B0C61E080E10E940B0C61E08FE008
:100430000E940B0C61E08EE00E940B0C61E08EE0EC
:100440000E94470C60E08FE00E94470C60E080E172
:100450000E94470C60E081E10E94470C14B88FEFC6
:1004600085B91AB88BB98CED93E00E944E0688EDE1
:1004700093E00C94D50A60E081E10E94470C61E0B2
:1004800080E10E94470C61E08FE00E94470C61E030
:100490008EE00E94470C89B18F3F09F444C089B1B6
:1004A0008F3E09F457C050F48F3B09F457C08F3D7D
:1004B00009F452C08F3749F488E031C08B3F09F40A
:1004C00045C030F5873F09F443C061E081E10E94F7
:1004D000470C60E080E10E94470C61E08FE00E94E1
:1004E000470C61E08EE00E94470C89B18F3F09F410
:1004F00069C089B18F3E09F47AC0A0F58F3B09F439
:100500007AC08F3D09F475C08F3789F584E107C043
:100510008D3F21F08E3FC9F681E001C082E091E07D
:100520009093C603089589B18F3D79F283B18B3DD5
:1005300059F020F4873D49F68CE0F1CF8D3D81F0F4
:100540008E3D19F689E0EBCF8BE0E9CF83E0E7CF72
:1005500084E0E5CF85E0E3CF86E0E1CF87E0DFCF41
:100560008AE0DDCF8B3F61F128F5873FF1F161E053
:1005700081E10E94470C61E080E10E94470C60E04D
:100580008FE00E94470C61E08EE00E94470C89B129
:100590008F3F09F466C089B18F3E09F477C088F5B2
:1005A0008F3B09F477C08F3D09F472C08F3771F526
:1005B00080E2B5CF8D3F09F18E3FC9F68DE0AFCF18
:1005C0008FE0ADCF89B18F3D91F283B18B3D59F072
:1005D00020F4873D61F688E1A2CF8D3D81F08E3D0C
:1005E00031F685E19CCF87E19ACF80E198CF81E118
:1005F00096CF82E194CF83E192CF8EE090CF86E1D7
:100600008ECF8B3F61F128F5873FF1F161E081E109
:100610000E94470C61E080E10E94470C61E08FE09E
:100620000E94470C60E08EE00E94470C89B18F3F2A
:1006300009F447C089B18F3E09F458C088F58F3B53
:1006400009F458C08F3D09F453C08F3771F58CE21F
:1006500066CF8D3F09F18E3FC9F689E160CF8BE10E
:100660005ECF89B18F3D91F283B18B3D59F020F47B
:10067000873D61F684E253CF8D3D81F08E3D31F6AA
:1006800081E24DCF83E24BCF8CE149CF8DE147CF63
:100690008EE145CF8FE143CF8AE141CF82E23FCF68
:1006A0008B3F69F030F4873FF9F01092C6038FEF6B
:1006B00008958D3F09F18E3FC1F785E230CF87E283
:1006C0002ECF89B18F3D89F383B18B3D59F020F452
:1006D000873D59F780E323CF8D3D81F08E3D29F78B
:1006E0008DE21DCF8FE21BCF88E219CF89E217CFB1
:1006F0008AE215CF8BE213CF86E211CF8EE20FCFC5
:10070000FF920F931F93CF93DF931F92CDB7DEB766
:1007100088ED93E00E94020A892B31F48091D20384
:100720009091D303892B31F5BE016F5F7F4F88ED28
:1007300093E00E94170A892BB9F7898190E00E9403
:100740005F019093D3038093D203892B99F02EE11C
:1007500030E0A90170E060E08CED93E00E94C608F3
:100760008CED93E00E94CE0664EF71E080E090E0B3
:100770000E94760B1C9936C01092CD031092CC03C8
:100780001092CF031092CE031092C9031092C803A7
:100790001C9907C061E070E080E090E00E94760B59
:1007A000F7CF8091D0039091D103892BA9F56CE20A
:1007B00071E080E090E00E94760B1C992AC01C99A1
:1007C00007C061E070E080E090E00E94760BF7CF18
:1007D00082E090E09093D1038093D0039093C40380
:1007E0008093C3031F9966C01092D1031092D00367
:1007F0001092CF031092CE031092C9031092C80337
:100800001F9935C061E070E080E090E00E94760BB7
:10081000F7CF81E090E0DECF6CE271E080E090E025
:100820000E94760B1C990FC01C9907C061E070E014
:1008300080E090E00E94760BF7CF8091D0039091FA
:10084000D103029749F41092C4031092C30310928B
:10085000D1031092D003C6CF82E090E09093C403FE
:100860008093C3039093D1038093D003BBCF809137
:10087000CC039091CD03892BE9F56CE271E080E027
:1008800090E00E94760B1F992CC01F9907C061E071
:1008900070E080E090E00E94760BF7CF82E090E07D
:1008A0009093CD038093CC0384E090E09093C403B5
:1008B0008093C3031E9975C01092CD031092CC0390
:1008C0001092D1031092D0031092C9031092C80362
:1008D0001E993DC061E070E080E090E00E94760BE0
:1008E000F7CF81E090E09093CD038093CC0383E039
:1008F00090E0DCCF6CE271E080E090E00E94760B4B
:100900001F990FC01F9907C061E070E080E090E080
:100910000E94760BF7CF8091CC039091CD03029784
:1009200049F41092C4031092C3031092CD031092A5
:10093000CC03C0CF84E090E09093C4038093C303C2
:1009400082E090E09093CD038093CC03B3CF80916D
:10095000CE039091CF03892B09F03DC001E010E058
:100960001093CB030093CA036CE271E080E090E047
:100970000E94760B1E9928C01E9907C061E070E0A6
:1009800080E090E00E94760BF7CF82E090E09093B9
:10099000CF038093CE0386E090E09093C4038093CE
:1009A000C303E091C303F091C403E730F10508F0FD
:1009B0005CC0E352FB4F0C94D70C2C051C05EC05D6
:1009C000F1050106060616061093CF030093CE0329
:1009D00085E090E0E2CF6CE271E080E090E00E9480
:1009E000760B1E990FC01E9907C061E070E080E091
:1009F00090E00E94760BF7CF8091CE039091CF03C9
:100A0000029769F41092C4031092C3031092CF03AB
:100A10001092CE031092CB031092CA03C2CF86E08D
:100A200090E09093C4038093C30382E090E090939E
:100A3000CF038093CE03B5CF8091C8039091C903B3
:100A400066E070E00E94C30CCB0162E070E00E949F
:100A5000C30C019709F0C0C020E030E0A90170E0AC
:100A600060E08CED93E00E94C6088CED93E00E945C
:100A7000CE068091C603811104C00E943B02809380
:100A8000C703F090C60381E0F81256C08091C703F7
:100A90008150990B27E0289FF001299FF00D112428
:100AA000EF58FD4F8091C3039091C403E80FF91FE5
:100AB00080810E9447018C0197FD1FC00E94F301B5
:100AC0008091D6039091D7038017910709F4B3C0A2
:100AD00070E060E0C8010E9492001093D50300937B
:100AE000D4031092C50366EE70E080E090E00E94AF
:100AF000760B1093D7030093D6030E9401028091D6
:100B0000C3039091C4039C012D7F2130310511F066
:100B1000059781F41092C4031092C3031092D1037D
:100B20001092D0031092CD031092CC031092CF03F9
:100B30001092CE031092C6038091C603811109C0A2
:100B40008091C8039091C90301969093C903809343
:100B5000C8038091C8039091C9034F9784F1809195
:100B6000D6039091D7032091D4033091D5038217F7
:100B7000930741F42091C503213021F462E070E035
:100B80000E9492008FEF9FEF9093D7038093D6033C
:100B90009093D5038093D4031092C50325E030E0F1
:100BA000A90170E060E08CED93E00E94C6088CED36
:100BB00093E00E94CE061092C9031092C80368E029
:100BC00070E080E090E00E94760B0F90DF91CF9173
:100BD0001F910F91FF90089520E030E045E050E034
:100BE0003ECF8091C8039091C90366E070E00E94F7
:100BF000C30CCB0162E070E00E94C30C019709F4C2
:100C00002BCF20E035E040E050E029CF8091C803B1
:100C10009091C90366E070E00E94C30CCB0162E0D2
:100C200070E00E94C30C019709F416CF25E030E074
:100C300040E050E014CF61E070E0C8010E94C201C2
:100C4000F092C50366E470E080E090E050CF22E5CA
:100C500030E04DE061E070E08CED93E00E94A6088A
:100C600043E150E062E170E088ED93E00C944609C6
:100C70008CED93E00C943C06CF93DF93EC018885D8
:100C800099850E94790D8E8187FD05C060E0DF9116
:100C9000CF910C940B0CDF91CF910895CF93DF93FC
:100CA000EC018E8187FD07C061E00E940B0C60E0C3
:100CB0008E810E94470C81E08983DF91CF91089556
:100CC000EF92FF920F931F93CF93DF93EC017B0181
:100CD000888599850E94790D9D858A85981701F1EF
:100CE00084E090E08E9D80018F9D100D9E9D100DE3
:100CF00011241D830C83C8010E94DD0C998788870D
:100D0000009789F0A80170E060E00E94020EFB826B
:100D1000EA82DF91CF911F910F91FF90EF9008959C
:100D200083E090E0DFCF1D821C821B821A82F1CF0C
:100D3000FC01B585A2859B0186E0369527958A95AD
:100D4000E1F723702587CB0134E0969587953A9596
:100D5000E1F783708287AB01569547955695479585
:100D600043704387962F9370948791E06F3F71058E
:100D700011F008F090E0908340855185452B69F093
:100D800031E0BA1330E091E0281390E0391729F0F0
:100D900062817381CF010C9460060895CF92DF9237
:100DA000EF92FF920F931F93CF93DF93CDB7DEB7F0
:100DB00029970FB6F894DEBF0FBECDBF8C01DC01C2
:100DC00018968D919C91892B09F497C00E94510B24
:100DD000F801C684D784E088F1886C197D098E09F2
:100DE0009F096C3271408105910580F3F894D80118
:100DF00014968D919C9115979A83898318960D90DE
:100E0000BC91A02D7D01EFEFEE1AFE0A8C9189872F
:100E1000D8018C9152960D90BC91A02D882309F495
:100E200034C11D82AB32B10509F076C09BB1F80127
:100E30008489982B98879BB1809589238F838F8194
:100E40008E83898587FF02C088858E8358856F8150
:100E500049853E812D8189819A81D7015BB9262FF1
:100E60003BB900C046FD252F6BB900C05BB9362FDA
:100E70002BB900C045FD352F6BB900C05BB9262FDB
:100E80003BB900C044FD252F6BB900C05BB9362FBC
:100E90002BB900C043FD352F6BB900C05BB9262FBD
:100EA0003BB900C042FD252F6BB900C05BB9362F9E
:100EB0002BB900C041FD352F6BB900C05BB9262F9F
:100EC0003BB900C040FD252F6BB901975BB9362FA8
:100ED0002BB94D9147FD352F6BB901F649873E83FC
:100EE0002D839A83898378940E94510BD8011E9692
:100EF0006D937D938D939C93519729960FB6F8949B
:100F0000DEBF0FBECDBFDF91CF911F910F91FF903C
:100F1000EF90DF90CF900895A532B10509F059C048
:100F200095B1F8018489982B988795B1809589238C
:100F30008F838F818E83898587FF02C088858E830A
:100F400058856F8149853E812D8189819A81D7019C
:100F500055B9262F35B900C046FD252F65B900C00B
:100F600055B9362F25B900C045FD352F65B900C0EC
:100F700055B9262F35B900C044FD252F65B900C0ED
:100F800055B9362F25B900C043FD352F65B900C0CE
:100F900055B9262F35B900C042FD252F65B900C0CF
:100FA00055B9362F25B900C041FD352F65B900C0B0
:100FB00055B9262F35B900C040FD252F65B90197D9
:100FC00055B9362F25B94D9147FD352F65B901F635
:100FD00085CF989709F087CF98B1F8018489982B2D
:100FE000988798B1809589238F838F818E83898597
:100FF00087FF02C088858E8358856F8149853E8131
:101000002D8189819A81D70158B9262F38B900C01E
:1010100046FD252F68B900C058B9362F28B900C041
:1010200045FD352F68B900C058B9262F38B900C022
:1010300044FD252F68B900C058B9362F28B900C023
:1010400043FD352F68B900C058B9262F38B900C004
:1010500042FD252F68B900C058B9362F28B900C005
:1010600041FD352F68B900C058B9262F38B900C0E6
:1010700040FD252F68B9019758B9362F28B94D91F1
:1010800047FD352F68B901F629CF9C91F801848975
:10109000982B98879C91809589238F838F818C834F
:1010A00088E08B8358856F8149853B812C818981BC
:1010B0009A81F7015C9347FD252F2C93262F3A95B3
:1010C00031F0441F6C9300C000C000C0F3CF6C939C
:1010D000000038E04191019769F7F801B38BA28BCA
:1010E00049873B832C83FDCE1F93CF93DF93EC0185
:1010F000162F8981882331F08E8187FD03C060E03F
:101100000E940B0C1E838981882341F061E0812FAE
:101110000E940B0C60E0812F0E94470C812F90E011
:10112000FC01EA56FF4FE491F0E0EE0FFF1FE95497
:10113000FF4F259134913B8B2A8BFC01E158FF4FE7
:10114000E491EC8BDF91CF911F910895EF92FF9284
:101150001F93CF93DF93EC017B01142F19821F8221
:10116000198618861E861F86188A198AB9010E9458
:101170009806B701CE010E946006612FCE01DF9173
:10118000CF911F91FF90EF900C9474088F929F92D3
:10119000AF92BF92CF92DF92EF92FF921F93CF93C5
:1011A000DF93FC018281938168177907A8F54A01D2
:1011B000AA24BB24C82DC32ED42EE52EFF241C2D1B
:1011C000D22F8781882361F0889E40011124C92D88
:1011D0008C9D600111241D2D829FD0011124DB2FD5
:1011E000A585E084F1849285A91322C0CB01880FE4
:1011F000991F680F791F6E0D7F1DA285A60FB72F4F
:10120000B11DCC93A385A60FB72FB11D1C93848568
:10121000680F711DFB01D083DF91CF911F91FF906B
:10122000EF90DF90CF90BF90AF909F908F900895F8
:10123000660F771F660F771F6E0D7F1D252F3327D3
:1012400044275527882349F090E0829F7001839FAF
:10125000F00C929FF00C11242F2DA60FB72FB11D6B
:101260002C93CBCFCF93C82F60E00E94470C61E056
:101270008C2FCF910C940B0CCF93C82F60E00E9461
:101280000B0C61E08C2FCF910C94470CCF93DF9324
:10129000EC01CB01798368835B834A830E943C091C
:1012A0008A819B81DF91CF910C943C09CF92DF9290
:1012B000EF92FF920F931F93CF93DF93EC01162FC2
:1012C00088E592E00E94AF0B88810E94750C892B03
:1012D00009F492C08A810E94750C892B09F48FC091
:1012E0008A819B810E94320985E090E00E94AF0BC9
:1012F000888199810E9432098EE190E00E94AF0BB3
:10130000888199810E943C0985E090E00E94AF0BA2
:1013100028E0F22E01E0C12ED12C8A819B81212F61
:101320002170E22E10FF62C00E943C0985E090E02F
:101330000E94AF0B888199810E9432098EE190E072
:101340000E94AF0B888199810E943C0985E090E062
:101350000E94AF0B8E2D8027D594C7941C2DFA9434
:10136000F11042C08A819B81E01609F442C00E94BC
:101370003C0985E090E00E94AF0B888199810E9432
:1013800032098EE190E00E94AF0B888199810E9422
:101390003C0985E090E00E94AF0B8A819B810E940E
:1013A0003C0985E090E00E94AF0B888199810E9402
:1013B00032098EE190E00E94AF0B888199810E94F2
:1013C0003C0985E090E00E94AF0B88E592E00E9426
:1013D000AF0B90E080E0DF91CF911F910F91FF90D4
:1013E000EF90DF90CF900895082F95CF0E9432099B
:1013F0009DCF0E943209BDCF8FEF9FEFECCF8EEFD4
:101400009FEFE9CFCF93DF93EC018A810E94750CA7
:1014100021E0892B39F088810E94750C21E0892B0D
:1014200009F020E0822F90E0DF91CF9108956F9234
:101430007F928F929F92AF92BF92CF92DF92EF9264
:10144000FF920F931F93CF93DF93EC014B010E9408
:10145000450B6B017C018A810E94750C8C01892BE4
:1014600071F00E94450B6C197D098E099F096F313F
:1014700071058105910578F30FEF1FEF86C0888114
:101480000E94750C019769F785E090E00E94AF0B10
:10149000888199810E9432098EE190E00E94AF0B11
:1014A000888199810E943C0985E090E00E94AF0B01
:1014B00098E0C92ED12C77247394F12CE12CAA2426
:1014C000A394B12C662463948A810E94750C0197C1
:1014D00019F4EA28FB287624AA0CBB1C85E090E0CE
:1014E0000E94AF0B888199810E9432098EE190E0C1
:1014F0000E94AF0B888199810E943C0985E090E0B1
:101500000E94AF0B81E0C81AD108F1F68A810E94CF
:10151000750C6C0185E090E00E94AF0B8881998189
:101520000E9432098EE190E00E94AF0B8881998180
:101530000E943C0985E090E00E94AF0B85E090E0BE
:101540000E94AF0B8A819B810E9432098881998118
:101550000E9432098EE190E00E94AF0B8881998150
:101560000E943C0985E090E00E94AF0B8A819B813C
:101570000E943C09F401E08281E0CA94CD2809F080
:1015800080E0871511F00EEF1FEFC801DF91CF91BA
:101590001F910F91FF90EF90DF90CF90BF90AF9091
:1015A0009F908F907F906F900895CF93DF93EC0181
:1015B0006AEACE010E945609892BD1F76AE070E0F1
:1015C00080E090E0DF91CF910C94760B1F93CF9346
:1015D000DF93EC01162F0E94560960EFCE010E94A6
:1015E0005609612FCE010E94560990E080E0DF91FC
:1015F000CF911F9108951F920F920FB60F92112451
:101600002F933F938F939F93AF93BF938091F60354
:101610009091F703A091F803B091F9033091F5038D
:1016200026E0230F2D3768F129E8230F0396A11D2B
:10163000B11D2093F5038093F6039093F703A093D5
:10164000F803B093F9038091F1039091F203A09114
:10165000F303B091F4030196A11DB11D8093F10332
:101660009093F203A093F303B093F403BF91AF916F
:101670009F918F913F912F910F900FBE0F901F90D0
:1016800018950296A11DB11DD4CF2FB7F894609183
:10169000F6037091F7038091F8039091F9032FBF3F
:1016A00008953FB7F8948091F1039091F203A091CF
:1016B000F303B091F40326B5A89B05C02F3F19F0A2
:1016C0000196A11DB11D3FBFBA2FA92F982F8827C2
:1016D000BC01CD01620F711D811D911D43E0660F9C
:1016E000771F881F991F4A95D1F708958F929F926F
:1016F000AF92BF92CF92DF92EF92FF926B017C018B
:101700000E94510B4B015C01C114D104E104F104AE
:10171000E9F00E94AE0C0E94510B681979098A0900
:101720009B09683E73408105910570F321E0C21A60
:10173000D108E108F10888EE880E83E0981EA11C0C
:10174000B11CC114D104E104F10429F7FF90EF901A
:10175000DF90CF90BF90AF909F908F900895000042
:1017600000008330910528F0880F991F0597019795
:10177000F1F70895789484B5836084BD85B583605E
:1017800085BDEEE6F0E0808181608083E1E8F0E0F5
:1017900082E08083808181608083E0E8F0E0808166
:1017A00081608083E1EBF0E0808184608083E0EB06
:1017B000F0E080818160808386E880937A001092D7
:1017C000C1000895843081F028F48230E9F083303C
:1017D000F9F00895883071F0893091F08530B9F4CE
:1017E000809180008F7D03C0809180008F778093EF
:1017F000800008958091B0008F778093B0000895A5
:101800008091B0008F7DF9CF84B58F7784BD089526
:1018100084B58F7DFBCFCF93DF9390E0FC01E1583F
:10182000FF4F24918A569F4FFC0184918823C9F071
:1018300090E0880F991FFC01EF53FF4FA591B491E1
:10184000FC01E954FF4FC591D49161110DC09FB7C0
:10185000F8948C91209582238C9388812823288367
:101860009FBFDF91CF910895623051F49FB7F894F4
:101870003C91822F809583238C93E8812E2BEFCF90
:101880008FB7F894EC912E2B2C938FBFEACF1F9338
:10189000CF93DF93282F30E0F901E859FF4F84916F
:1018A000F901E158FF4FD491F901EA56FF4FC49175
:1018B000CC23A9F0162F81110E94E20BEC2FF0E04F
:1018C000EE0FFF1FE954FF4FA591B4918FB7F89425
:1018D000EC91111108C0D095DE23DC938FBFDF910E
:1018E000CF911F910895DE2BF8CFCF93DF93282F50
:1018F00030E0F901E859FF4F8491F901E158FF4FB9
:10190000D491F901EA56FF4FC491CC23A1F0811183
:101910000E94E20BEC2FF0E0EE0FFF1FE355FF4FAC
:10192000A591B491EC91ED2381E090E009F480E081
:10193000DF91CF91089580E090E0FACF08950E9462
:10194000BA0B0E949E0C0E940E02C0E0D0E00E94E2
:1019500080032097E1F30E940000F9CF0895AA1BAD
:10196000BB1B51E107C0AA1FBB1FA617B70710F08A
:10197000A61BB70B881F991F5A95A9F780959095BC
:10198000BC01CD01089597FB072E16F4009407D0F3
:1019900077FD09D00E94AF0C07FC05D03EF490956E
:1019A00081959F4F0895709561957F4F0895EE0F33
:1019B000FF1F0590F491E02D09940F931F93CF938F
:1019C000DF938230910510F482E090E0E091FC0317
:1019D000F091FD0330E020E0B0E0A0E0309799F412
:1019E0002115310509F44AC0281B390B2430310573
:1019F000D8F58A819B816115710589F1FB0193837B
:101A00008283FE0111C040815181028113814817F8
:101A10005907E0F04817590799F4109761F01296AA
:101A20000C93129713961C933296CF01DF91CF91AE
:101A30001F910F9108950093FC031093FD03F4CFC1
:101A40002115310551F04217530738F0A901DB0188
:101A50009A01BD01DF01F801C1CFEF01F9CF9093E9
:101A6000FD038093FC03CDCFFE01E20FF31F8193B2
:101A700091932250310939832883D7CF2091FA03DB
:101A80003091FB03232B41F420910201309103019B
:101A90003093FB032093FA03209100013091010160
:101AA0002115310541F42DB73EB740910401509105
:101AB0000501241B350BE091FA03F091FB03E217BB
:101AC000F307A0F42E1B3F0B2817390778F0AC0161
:101AD0004E5F5F4F2417350748F04E0F5F1F50933E
:101AE000FB034093FA03819391939FCFF0E0E0E0F2
:101AF0009CCFCF93DF930097E9F0FC0132971382DC
:101B00001282A091FC03B091FD03ED0130E020E0D2
:101B10001097A1F420813181820F931F2091FA0345
:101B20003091FB032817390709F061C0F093FB03DC
:101B3000E093FA03DF91CF910895EA01CE17DF0712
:101B4000E8F54A815B819E0141155105B1F7E90134
:101B5000FB83EA8349915991C40FD51FEC17FD0708
:101B600061F4808191810296840F951FE901998328
:101B70008883828193819B838A83F0E0E0E01296E0
:101B80008D919C9113970097B9F52D913C911197E8
:101B9000CD010296820F931F2091FA033091FB032F
:101BA0002817390739F6309751F51092FD03109236
:101BB000FC03B093FB03A093FA03BCCFD383C2838F
:101BC00040815181840F951FC817D90761F44E5F7A
:101BD0005F4F88819981480F591F518340838A81C3
:101BE0009B81938382832115310509F0B0CFF09357
:101BF000FD03E093FC039ECFFD01DC01C0CF138207
:101C00001282D7CFDC0101C06D9341505040E0F704
:101C1000089510E0C7E6D0E004C0FE010E94D70C92
:0C1C20002196C836D107C9F7F894FFCF11
:101C2C000000FE03800008006609000D0D005A1B21
:101C3C00007620002921011622011E2301262401F1
:101C4C002525012E26013627013D28013E29014676
:101C5C002A01522B014C2C00412D004E2E00492FF5
:101C6C00004A30004531001632001E330026340085
:101C7C002535002E36003637003D38003E390046FB
:101C8C003A00523B004C3C01413D014E3E01493F64
:101C9C00014A40005441011C4201324301214401DC
:101CAC002345012446012B470134480133490143A4
:101CBC004A013B4B01424C014B4D013A4E01314F15
:101CCC00014450014D51011552012D53011B54017A
:101CDC002C55013C56012A57011D58012259011A55
:101CEC005A01355B005B5C006A5D005D5E00555F10
:101CFC00015160015461001C6200326300216400D8
:101D0C002365002466002B670034680033690043A8
:101D1C006A003B6B00426C004B6D003A6E00316FF9
:101D2C00004470004D71001572002D73001B74007F
:101D3C002C75003C76002A77001D78002279001A59
:101D4C007A00357B015B7C016A7D015D7E01557FEC
:101D5C00027181000582000683000484000C85005A
:101D6C000386000B87008388000A8900018A00091A
:101D7C008B027098026C99027DA10013A4027AA5C3
:101D8C000269B4026BB50275B60272B70274000038
:101D9C00001B1B1B1B1B80803131312121818132A7
:101DAC0032322222828233333327278383343434F2
:101DBC0024248484353535252585853636362626E6
:101DCC0086863737372F2F878738383828288888E2
:101DDC00393939292989893030303D3D8A8A087F43
:101DEC007F08088B8B09090909098C8C7151517B6F
:101DFC007B8D8D7757577D7D8E8E6545452B2B8F33
:101E0C008F725252232390907454545B5B9191794E
:101E1C0059595D5D92927555557C7C9393694949EE
:101E2C007E7E94946F4F4F5E5E95957050502A2A2B
:101E3C00969600000000000000B4B4B4B4B49898B6
:101E4C00B5B5B5B5B599996141413C3C9A9A735376
:101E5C00533E3E9B9B64444440409C9C66464600DB
:101E6C00009D9D6747472D2D9E9E6848485F5F9F4C
:101E7C009F6A4A4A0000A0A06B4B4B3F3FA1A16C4C
:101E8C004C4C0000A2A20D0D0D0D0DA3A3B6B6B6C1
:101E9C00B6B6A4A4B7B7B7B7B7A5A57A5A5A000077
:101EAC00A6A67858580000A7A76343430000A8A82B
:101EBC007656560000A9A96242420000AAAA6E4EAC
:101ECC004E0000ABAB6D4D4D0000ACAC2C2C2C3B44
:101EDC003BADAD2E2E2E3A3AAEAE2020202020AFB8
:021EEC00AF0045
:00000001FF
